{
  "_format": "hh-sol-artifact-1",
  "contractName": "RenderverseSwap",
  "sourceName": "contracts/RenderverseSwap.sol",
  "abi": [
    {
      "inputs": [
        {
          "internalType": "address",
          "name": "_tokenAddress",
          "type": "address"
        }
      ],
      "stateMutability": "nonpayable",
      "type": "constructor"
    },
    {
      "anonymous": false,
      "inputs": [
        {
          "indexed": true,
          "internalType": "bytes32",
          "name": "role",
          "type": "bytes32"
        },
        {
          "indexed": true,
          "internalType": "bytes32",
          "name": "previousAdminRole",
          "type": "bytes32"
        },
        {
          "indexed": true,
          "internalType": "bytes32",
          "name": "newAdminRole",
          "type": "bytes32"
        }
      ],
      "name": "RoleAdminChanged",
      "type": "event"
    },
    {
      "anonymous": false,
      "inputs": [
        {
          "indexed": true,
          "internalType": "bytes32",
          "name": "role",
          "type": "bytes32"
        },
        {
          "indexed": true,
          "internalType": "address",
          "name": "account",
          "type": "address"
        },
        {
          "indexed": true,
          "internalType": "address",
          "name": "sender",
          "type": "address"
        }
      ],
      "name": "RoleGranted",
      "type": "event"
    },
    {
      "anonymous": false,
      "inputs": [
        {
          "indexed": true,
          "internalType": "bytes32",
          "name": "role",
          "type": "bytes32"
        },
        {
          "indexed": true,
          "internalType": "address",
          "name": "account",
          "type": "address"
        },
        {
          "indexed": true,
          "internalType": "address",
          "name": "sender",
          "type": "address"
        }
      ],
      "name": "RoleRevoked",
      "type": "event"
    },
    {
      "inputs": [],
      "name": "DEFAULT_ADMIN_ROLE",
      "outputs": [
        {
          "internalType": "bytes32",
          "name": "",
          "type": "bytes32"
        }
      ],
      "stateMutability": "view",
      "type": "function"
    },
    {
      "inputs": [
        {
          "internalType": "uint256",
          "name": "amount",
          "type": "uint256"
        }
      ],
      "name": "calculateForPreSale",
      "outputs": [
        {
          "internalType": "uint256",
          "name": "",
          "type": "uint256"
        }
      ],
      "stateMutability": "payable",
      "type": "function"
    },
    {
      "inputs": [
        {
          "internalType": "uint256",
          "name": "amount",
          "type": "uint256"
        }
      ],
      "name": "calculateForPublicSale",
      "outputs": [
        {
          "internalType": "uint256",
          "name": "",
          "type": "uint256"
        }
      ],
      "stateMutability": "payable",
      "type": "function"
    },
    {
      "inputs": [
        {
          "internalType": "bytes32",
          "name": "role",
          "type": "bytes32"
        }
      ],
      "name": "getRoleAdmin",
      "outputs": [
        {
          "internalType": "bytes32",
          "name": "",
          "type": "bytes32"
        }
      ],
      "stateMutability": "view",
      "type": "function"
    },
    {
      "inputs": [
        {
          "internalType": "bytes32",
          "name": "role",
          "type": "bytes32"
        },
        {
          "internalType": "address",
          "name": "account",
          "type": "address"
        }
      ],
      "name": "grantRole",
      "outputs": [],
      "stateMutability": "nonpayable",
      "type": "function"
    },
    {
      "inputs": [
        {
          "internalType": "bytes32",
          "name": "role",
          "type": "bytes32"
        },
        {
          "internalType": "address",
          "name": "account",
          "type": "address"
        }
      ],
      "name": "hasRole",
      "outputs": [
        {
          "internalType": "bool",
          "name": "",
          "type": "bool"
        }
      ],
      "stateMutability": "view",
      "type": "function"
    },
    {
      "inputs": [],
      "name": "postsaleEther",
      "outputs": [
        {
          "internalType": "uint256",
          "name": "",
          "type": "uint256"
        }
      ],
      "stateMutability": "view",
      "type": "function"
    },
    {
      "inputs": [
        {
          "internalType": "address payable",
          "name": "sender",
          "type": "address"
        }
      ],
      "name": "preSale",
      "outputs": [],
      "stateMutability": "payable",
      "type": "function"
    },
    {
      "inputs": [],
      "name": "presaleEther",
      "outputs": [
        {
          "internalType": "uint256",
          "name": "",
          "type": "uint256"
        }
      ],
      "stateMutability": "view",
      "type": "function"
    },
    {
      "inputs": [
        {
          "internalType": "address payable",
          "name": "sender",
          "type": "address"
        }
      ],
      "name": "publicSale",
      "outputs": [],
      "stateMutability": "payable",
      "type": "function"
    },
    {
      "inputs": [
        {
          "internalType": "bytes32",
          "name": "role",
          "type": "bytes32"
        },
        {
          "internalType": "address",
          "name": "account",
          "type": "address"
        }
      ],
      "name": "renounceRole",
      "outputs": [],
      "stateMutability": "nonpayable",
      "type": "function"
    },
    {
      "inputs": [
        {
          "internalType": "bytes32",
          "name": "role",
          "type": "bytes32"
        },
        {
          "internalType": "address",
          "name": "account",
          "type": "address"
        }
      ],
      "name": "revokeRole",
      "outputs": [],
      "stateMutability": "nonpayable",
      "type": "function"
    },
    {
      "inputs": [
        {
          "internalType": "bytes4",
          "name": "interfaceId",
          "type": "bytes4"
        }
      ],
      "name": "supportsInterface",
      "outputs": [
        {
          "internalType": "bool",
          "name": "",
          "type": "bool"
        }
      ],
      "stateMutability": "view",
      "type": "function"
    }
  ],
  "bytecode": "0x6080604052600160055560036006553480156200001b57600080fd5b5060405162001819380380620018198339818101604052810190620000419190620000f8565b80600160006101000a81548173ffffffffffffffffffffffffffffffffffffffff021916908373ffffffffffffffffffffffffffffffffffffffff16021790555062000092620000d960201b60201c565b600260006101000a81548173ffffffffffffffffffffffffffffffffffffffff021916908373ffffffffffffffffffffffffffffffffffffffff1602179055505062000172565b600033905090565b600081519050620000f28162000158565b92915050565b6000602082840312156200010b57600080fd5b60006200011b84828501620000e1565b91505092915050565b6000620001318262000138565b9050919050565b600073ffffffffffffffffffffffffffffffffffffffff82169050919050565b620001638162000124565b81146200016f57600080fd5b50565b61169780620001826000396000f3fe6080604052600436106100c25760003560e01c80635b8b06eb1161007f578063a217fddf11610059578063a217fddf14610263578063ba8788d71461028e578063bcd1cb50146102b9578063d547741f146102e9576100c2565b80635b8b06eb146101da57806365f5dc7e1461020a57806391d1485414610226576100c2565b806301ffc9a7146100c7578063248a9ca3146101045780632f2ff15d1461014157806336568abe1461016a57806339dab186146101935780634d0b69b7146101af575b600080fd5b3480156100d357600080fd5b506100ee60048036038101906100e99190610f50565b610312565b6040516100fb9190611177565b60405180910390f35b34801561011057600080fd5b5061012b60048036038101906101269190610eeb565b61038c565b6040516101389190611192565b60405180910390f35b34801561014d57600080fd5b5061016860048036038101906101639190610f14565b6103ab565b005b34801561017657600080fd5b50610191600480360381019061018c9190610f14565b6103d4565b005b6101ad60048036038101906101a89190610e99565b610457565b005b3480156101bb57600080fd5b506101c46105da565b6040516101d1919061122f565b60405180910390f35b6101f460048036038101906101ef9190610f79565b6105e0565b604051610201919061122f565b60405180910390f35b610224600480360381019061021f9190610e99565b610607565b005b34801561023257600080fd5b5061024d60048036038101906102489190610f14565b61078a565b60405161025a9190611177565b60405180910390f35b34801561026f57600080fd5b506102786107f4565b6040516102859190611192565b60405180910390f35b34801561029a57600080fd5b506102a36107fb565b6040516102b0919061122f565b60405180910390f35b6102d360048036038101906102ce9190610f79565b610801565b6040516102e0919061122f565b60405180910390f35b3480156102f557600080fd5b50610310600480360381019061030b9190610f14565b610828565b005b60007f7965db0b000000000000000000000000000000000000000000000000000000007bffffffffffffffffffffffffffffffffffffffffffffffffffffffff1916827bffffffffffffffffffffffffffffffffffffffffffffffffffffffff19161480610385575061038482610851565b5b9050919050565b6000806000838152602001908152602001600020600101549050919050565b6103b48261038c565b6103c5816103c06108bb565b6108c3565b6103cf8383610960565b505050565b6103dc6108bb565b73ffffffffffffffffffffffffffffffffffffffff168173ffffffffffffffffffffffffffffffffffffffff1614610449576040517f08c379a00000000000000000000000000000000000000000000000000000000081526004016104409061120f565b60405180910390fd5b6104538282610a40565b5050565b67016345785d8a000060055461046d91906112f8565b34101580156104915750670de0b6b3a764000060065461048d91906112f8565b3411155b6104d0576040517f08c379a00000000000000000000000000000000000000000000000000000000081526004016104c7906111ef565b60405180910390fd5b8073ffffffffffffffffffffffffffffffffffffffff166108fc349081150290604051600060405180830381858888f19350505050158015610516573d6000803e3d6000fd5b506000610522346105e0565b9050600160009054906101000a900473ffffffffffffffffffffffffffffffffffffffff1673ffffffffffffffffffffffffffffffffffffffff1663f5537ede8333846040518463ffffffff1660e01b815260040161058393929190611140565b602060405180830381600087803b15801561059d57600080fd5b505af11580156105b1573d6000803e3d6000fd5b505050506040513d601f19601f820116820180604052508101906105d59190610ec2565b505050565b60035481565b60008060646006846105f291906112f8565b6105fc91906112c7565b905080915050919050565b67016345785d8a000060055461061d91906112f8565b34101580156106415750670de0b6b3a764000060065461063d91906112f8565b3411155b610680576040517f08c379a0000000000000000000000000000000000000000000000000000000008152600401610677906111ef565b60405180910390fd5b8073ffffffffffffffffffffffffffffffffffffffff166108fc349081150290604051600060405180830381858888f193505050501580156106c6573d6000803e3d6000fd5b5060006106d234610801565b9050600160009054906101000a900473ffffffffffffffffffffffffffffffffffffffff1673ffffffffffffffffffffffffffffffffffffffff1663f5537ede8333846040518463ffffffff1660e01b815260040161073393929190611140565b602060405180830381600087803b15801561074d57600080fd5b505af1158015610761573d6000803e3d6000fd5b505050506040513d601f19601f820116820180604052508101906107859190610ec2565b505050565b600080600084815260200190815260200160002060000160008373ffffffffffffffffffffffffffffffffffffffff1673ffffffffffffffffffffffffffffffffffffffff16815260200190815260200160002060009054906101000a900460ff16905092915050565b6000801b81565b60045481565b6000806064600c8461081391906112f8565b61081d91906112c7565b905080915050919050565b6108318261038c565b6108428161083d6108bb565b6108c3565b61084c8383610a40565b505050565b60007f01ffc9a7000000000000000000000000000000000000000000000000000000007bffffffffffffffffffffffffffffffffffffffffffffffffffffffff1916827bffffffffffffffffffffffffffffffffffffffffffffffffffffffff1916149050919050565b600033905090565b6108cd828261078a565b61095c576108f28173ffffffffffffffffffffffffffffffffffffffff166014610b21565b6109008360001c6020610b21565b604051602001610911929190611106565b6040516020818303038152906040526040517f08c379a000000000000000000000000000000000000000000000000000000000815260040161095391906111ad565b60405180910390fd5b5050565b61096a828261078a565b610a3c57600160008084815260200190815260200160002060000160008373ffffffffffffffffffffffffffffffffffffffff1673ffffffffffffffffffffffffffffffffffffffff16815260200190815260200160002060006101000a81548160ff0219169083151502179055506109e16108bb565b73ffffffffffffffffffffffffffffffffffffffff168173ffffffffffffffffffffffffffffffffffffffff16837f2f8788117e7eff1d82e926ec794901d17c78024a50270940304540a733656f0d60405160405180910390a45b5050565b610a4a828261078a565b15610b1d57600080600084815260200190815260200160002060000160008373ffffffffffffffffffffffffffffffffffffffff1673ffffffffffffffffffffffffffffffffffffffff16815260200190815260200160002060006101000a81548160ff021916908315150217905550610ac26108bb565b73ffffffffffffffffffffffffffffffffffffffff168173ffffffffffffffffffffffffffffffffffffffff16837ff6391f5c32d9c69d2a47ea670b442974b53935d1edc7fd64eb21e047a839171b60405160405180910390a45b5050565b606060006002836002610b3491906112f8565b610b3e9190611271565b67ffffffffffffffff811115610b7d577f4e487b7100000000000000000000000000000000000000000000000000000000600052604160045260246000fd5b6040519080825280601f01601f191660200182016040528015610baf5781602001600182028036833780820191505090505b5090507f300000000000000000000000000000000000000000000000000000000000000081600081518110610c0d577f4e487b7100000000000000000000000000000000000000000000000000000000600052603260045260246000fd5b60200101907effffffffffffffffffffffffffffffffffffffffffffffffffffffffffffff1916908160001a9053507f780000000000000000000000000000000000000000000000000000000000000081600181518110610c97577f4e487b7100000000000000000000000000000000000000000000000000000000600052603260045260246000fd5b60200101907effffffffffffffffffffffffffffffffffffffffffffffffffffffffffffff1916908160001a90535060006001846002610cd791906112f8565b610ce19190611271565b90505b6001811115610dcd577f3031323334353637383961626364656600000000000000000000000000000000600f861660108110610d49577f4e487b7100000000000000000000000000000000000000000000000000000000600052603260045260246000fd5b1a60f81b828281518110610d86577f4e487b7100000000000000000000000000000000000000000000000000000000600052603260045260246000fd5b60200101907effffffffffffffffffffffffffffffffffffffffffffffffffffffffffffff1916908160001a905350600485901c945080610dc69061144b565b9050610ce4565b5060008414610e11576040517f08c379a0000000000000000000000000000000000000000000000000000000008152600401610e08906111cf565b60405180910390fd5b8091505092915050565b600081359050610e2a816115d7565b92915050565b600081359050610e3f816115ee565b92915050565b600081519050610e5481611605565b92915050565b600081359050610e698161161c565b92915050565b600081359050610e7e81611633565b92915050565b600081359050610e938161164a565b92915050565b600060208284031215610eab57600080fd5b6000610eb984828501610e30565b91505092915050565b600060208284031215610ed457600080fd5b6000610ee284828501610e45565b91505092915050565b600060208284031215610efd57600080fd5b6000610f0b84828501610e5a565b91505092915050565b60008060408385031215610f2757600080fd5b6000610f3585828601610e5a565b9250506020610f4685828601610e1b565b9150509250929050565b600060208284031215610f6257600080fd5b6000610f7084828501610e6f565b91505092915050565b600060208284031215610f8b57600080fd5b6000610f9984828501610e84565b91505092915050565b610fab816113e2565b82525050565b610fba81611352565b82525050565b610fc981611376565b82525050565b610fd881611382565b82525050565b6000610fe98261124a565b610ff38185611255565b9350611003818560208601611418565b61100c816114d3565b840191505092915050565b60006110228261124a565b61102c8185611266565b935061103c818560208601611418565b80840191505092915050565b6000611055602083611255565b9150611060826114e4565b602082019050919050565b6000611078602083611255565b91506110838261150d565b602082019050919050565b600061109b601783611266565b91506110a682611536565b601782019050919050565b60006110be601183611266565b91506110c98261155f565b601182019050919050565b60006110e1602f83611255565b91506110ec82611588565b604082019050919050565b611100816113d8565b82525050565b60006111118261108e565b915061111d8285611017565b9150611128826110b1565b91506111348284611017565b91508190509392505050565b60006060820190506111556000830186610fa2565b6111626020830185610fb1565b61116f60408301846110f7565b949350505050565b600060208201905061118c6000830184610fc0565b92915050565b60006020820190506111a76000830184610fcf565b92915050565b600060208201905081810360008301526111c78184610fde565b905092915050565b600060208201905081810360008301526111e881611048565b9050919050565b600060208201905081810360008301526112088161106b565b9050919050565b60006020820190508181036000830152611228816110d4565b9050919050565b600060208201905061124460008301846110f7565b92915050565b600081519050919050565b600082825260208201905092915050565b600081905092915050565b600061127c826113d8565b9150611287836113d8565b9250827fffffffffffffffffffffffffffffffffffffffffffffffffffffffffffffffff038211156112bc576112bb611475565b5b828201905092915050565b60006112d2826113d8565b91506112dd836113d8565b9250826112ed576112ec6114a4565b5b828204905092915050565b6000611303826113d8565b915061130e836113d8565b9250817fffffffffffffffffffffffffffffffffffffffffffffffffffffffffffffffff048311821515161561134757611346611475565b5b828202905092915050565b600061135d826113b8565b9050919050565b600061136f826113b8565b9050919050565b60008115159050919050565b6000819050919050565b60007fffffffff0000000000000000000000000000000000000000000000000000000082169050919050565b600073ffffffffffffffffffffffffffffffffffffffff82169050919050565b6000819050919050565b60006113ed826113f4565b9050919050565b60006113ff82611406565b9050919050565b6000611411826113b8565b9050919050565b60005b8381101561143657808201518184015260208101905061141b565b83811115611445576000848401525b50505050565b6000611456826113d8565b9150600082141561146a57611469611475565b5b600182039050919050565b7f4e487b7100000000000000000000000000000000000000000000000000000000600052601160045260246000fd5b7f4e487b7100000000000000000000000000000000000000000000000000000000600052601260045260246000fd5b6000601f19601f8301169050919050565b7f537472696e67733a20686578206c656e67746820696e73756666696369656e74600082015250565b7f53656e742056616c7565206f66204574686572206973204e6f742056616c6964600082015250565b7f416363657373436f6e74726f6c3a206163636f756e7420000000000000000000600082015250565b7f206973206d697373696e6720726f6c6520000000000000000000000000000000600082015250565b7f416363657373436f6e74726f6c3a2063616e206f6e6c792072656e6f756e636560008201527f20726f6c657320666f722073656c660000000000000000000000000000000000602082015250565b6115e081611352565b81146115eb57600080fd5b50565b6115f781611364565b811461160257600080fd5b50565b61160e81611376565b811461161957600080fd5b50565b61162581611382565b811461163057600080fd5b50565b61163c8161138c565b811461164757600080fd5b50565b611653816113d8565b811461165e57600080fd5b5056fea26469706673582212203bc1c2ed229e12d3af2c4ce8d3584e5864e225143c384560fc7d73f7d315f30d64736f6c63430008040033",
  "linkReferences": {},
  "deployedLinkReferences": {}
}